{
  "contractName": "BondiMat",
  "abi": [
    {
      "inputs": [],
      "stateMutability": "nonpayable",
      "type": "constructor"
    },
    {
      "inputs": [],
      "name": "totalCost",
      "outputs": [
        {
          "internalType": "uint256",
          "name": "",
          "type": "uint256"
        }
      ],
      "stateMutability": "view",
      "type": "function",
      "constant": true
    },
    {
      "inputs": [
        {
          "internalType": "address",
          "name": "",
          "type": "address"
        }
      ],
      "name": "traveler",
      "outputs": [
        {
          "internalType": "uint256",
          "name": "buyDate",
          "type": "uint256"
        },
        {
          "internalType": "uint256",
          "name": "tripsLeft",
          "type": "uint256"
        }
      ],
      "stateMutability": "view",
      "type": "function",
      "constant": true
    },
    {
      "inputs": [],
      "name": "tripCost",
      "outputs": [
        {
          "internalType": "uint256",
          "name": "",
          "type": "uint256"
        }
      ],
      "stateMutability": "view",
      "type": "function",
      "constant": true
    },
    {
      "inputs": [
        {
          "internalType": "uint256",
          "name": "_numberOfTrips",
          "type": "uint256"
        }
      ],
      "name": "buyTicket",
      "outputs": [],
      "stateMutability": "payable",
      "type": "function",
      "payable": true
    },
    {
      "inputs": [],
      "name": "usedTicket",
      "outputs": [],
      "stateMutability": "nonpayable",
      "type": "function"
    },
    {
      "inputs": [
        {
          "internalType": "uint256",
          "name": "_tripCost",
          "type": "uint256"
        }
      ],
      "name": "updateCost",
      "outputs": [],
      "stateMutability": "nonpayable",
      "type": "function"
    },
    {
      "inputs": [],
      "name": "getTripCost",
      "outputs": [
        {
          "internalType": "uint256",
          "name": "",
          "type": "uint256"
        }
      ],
      "stateMutability": "view",
      "type": "function",
      "constant": true
    },
    {
      "inputs": [],
      "name": "balanceOfCont",
      "outputs": [
        {
          "internalType": "uint256",
          "name": "",
          "type": "uint256"
        }
      ],
      "stateMutability": "view",
      "type": "function",
      "constant": true
    }
  ],
  "bytecode": "0x60a060405234801561001057600080fd5b5033600260006101000a81548173ffffffffffffffffffffffffffffffffffffffff021916908373ffffffffffffffffffffffffffffffffffffffff160217905550426080818152505066038d7ea4c680006003819055506080516105ca61007d600039506105ca6000f3fe60806040526004361061007b5760003560e01c80635b7040ee1161004e5780635b7040ee1461017d57806367dd74ca146101a8578063920bda7b146101d6578063c6732e57146101ed5761007b565b80631120215414610080578063198c6022146100ec57806323c5a088146101175780633c5e6c9714610152575b600080fd5b34801561008c57600080fd5b506100cf600480360360208110156100a357600080fd5b81019080803573ffffffffffffffffffffffffffffffffffffffff169060200190929190505050610218565b604051808381526020018281526020019250505060405180910390f35b3480156100f857600080fd5b5061010161023c565b6040518082815260200191505060405180910390f35b34801561012357600080fd5b506101506004803603602081101561013a57600080fd5b8101908080359060200190929190505050610301565b005b34801561015e57600080fd5b506101676103b1565b6040518082815260200191505060405180910390f35b34801561018957600080fd5b506101926103b7565b6040518082815260200191505060405180910390f35b6101d4600480360360208110156101be57600080fd5b81019080803590602001909291905050506103c1565b005b3480156101e257600080fd5b506101eb6104dc565b005b3480156101f957600080fd5b5061020261052f565b6040518082815260200191505060405180910390f35b60046020528060005260406000206000915090508060000154908060010154905082565b6000600260009054906101000a900473ffffffffffffffffffffffffffffffffffffffff1673ffffffffffffffffffffffffffffffffffffffff163373ffffffffffffffffffffffffffffffffffffffff16146102e4576040517f08c379a000000000000000000000000000000000000000000000000000000000815260040180806020018281038252603e815260200180610536603e913960400191505060405180910390fd5b3073ffffffffffffffffffffffffffffffffffffffff1631905090565b600260009054906101000a900473ffffffffffffffffffffffffffffffffffffffff1673ffffffffffffffffffffffffffffffffffffffff163373ffffffffffffffffffffffffffffffffffffffff16146103a7576040517f08c379a000000000000000000000000000000000000000000000000000000000815260040180806020018281038252603e815260200180610536603e913960400191505060405180910390fd5b8060038190555050565b60005481565b6000600354905090565b6003548102600081905550600054341015610427576040517f08c379a00000000000000000000000000000000000000000000000000000000081526004018080602001828103825260218152602001806105746021913960400191505060405180910390fd5b80600460003373ffffffffffffffffffffffffffffffffffffffff1673ffffffffffffffffffffffffffffffffffffffff16815260200190815260200160002060010154019050604051806040016040528042815260200182815250600460003373ffffffffffffffffffffffffffffffffffffffff1673ffffffffffffffffffffffffffffffffffffffff168152602001908152602001600020600082015181600001556020820151816001015590505050565b6001600460003373ffffffffffffffffffffffffffffffffffffffff1673ffffffffffffffffffffffffffffffffffffffff16815260200190815260200160002060010160008282540392505081905550565b6003548156fe4920616d20616672616964206f6e6c7920436f6e7472616374204f776e65722063616e20706572666f726d20746869732074797065206f66207461736b734e6f7420656e6f756768204d4154494320666f722074686973207061796d656e74a264697066735822122082e94c3e86db0a6e27abee3788d1846407974e62086cc1d4ef91b1d6a0926b9964736f6c63430006060033",
  "immutableReferences": {},
  "source": "// SPDX-License-Identifier: UNLICENSED\n//pragma solidity ^0.8.4;\npragma solidity ^0.6.6;\n\n// https://docs.openzeppelin.com/contracts/2.x/\n// import working only if you add the contract with nmp: 'npm install @openzeppelin/contracts'\n// import \"@openzeppelin/contracts/token/ERC20/IERC20.sol\";\n// traveler should only see his own trips left\n    \ncontract BondiMat{\n    uint public totalCost;\n    address codeQR;\n    address internal owner;\n    uint256 public tripCost;\n    uint internal immutable deployDate; // Immutable variables are evaluated/assigned once at construction time and their value is copied to all the places in the code where they are accessed\n    \n    // Model a Traveler - Read/Write Travelers from DappUniversity at: https://www.dappuniversity.com/articles/solidity\n    struct Traveler{\n        // *** buyDate seems no longer important is it??\n        uint buyDate; // to be used with traveler wallet address to generate QR code\n        uint tripsLeft; // measuring the amount of days left\n    }\n\n    mapping(address => Traveler) public traveler;\n\n    constructor() public{\n        owner = msg.sender;\n        deployDate = block.timestamp;\n        tripCost = 1000000000000000; // Initially 0.001 ETHER - ether is equivalent to MATIC in this contract code - 1 MATIC is approx 1USD at July 2021\n        // start = block.timestamp + duration;\n        // revisar acá como ponerle el msg.sender y que lo tome como una address payable\n        // contractOwner = msg.sender;\n    }\n    \n    // send Ether to smart contract from Julian video: https://www.youtube.com/watch?v=4k_ak3SFczc\n    function buyTicket(uint _numberOfTrips) external payable{\n        totalCost = _numberOfTrips * tripCost;\n        // *** totalCost could be presented to customer or a preview before accepting (probably already done by Metamask)\n        require(msg.value >= totalCost, \"Not enough MATIC for this payment\");\n        _numberOfTrips = traveler[msg.sender].tripsLeft + _numberOfTrips;\n        traveler[msg.sender] = Traveler(block.timestamp,_numberOfTrips);\n    }\n    \n    // *** Temporary trips Decrease function\n    function usedTicket() external{\n        traveler[msg.sender].tripsLeft -= 1;\n    }\n    \n    function updateCost(uint256 _tripCost) external onlyOwner{\n        tripCost = _tripCost;\n    }\n\n    // This provides 1 Trip Cost\n    function getTripCost() external view returns(uint256) {\n        return tripCost;\n    }\n    \n    // This provides Contract balance\n    function balanceOfCont() external view onlyOwner returns(uint){\n        return address(this).balance;\n    }\n    \n\n    // Good info about it in https://www.dappuniversity.com/articles/solidity-tutorial#3\n    modifier onlyOwner(){\n        require(msg.sender == owner, \"I am afraid only Contract Owner can perform this type of tasks\");\n        _;\n    }\n\n\n// ToDos\n    //*** function to show current MATIC available or it could be shown when buying ... uint balance; // to show the user what the amount of MATIC he has to purchase  \n    //*** function to update the cost of trips (onlyOwner or delegated)\n    \n// Flight Contract https://github.com/smallbatch-apps/fairline-contract/blob/master/contracts/Flight.sol\n //modifier hasTicket(){\n    //require(_ownerSeats[msg.sender].length > 0, \"Passenger must have active QR for this trip\");\n    //_;\n    //}\n\n  //modifier hasTicket(){\n    //require(_contractOwner = owner)\n    //_;\n    //}\n\n}\n\n//Notes:\n    // https://ethereum.stackexchange.com/questions/729/how-to-concatenate-strings-in-solidity\n    //function append(string a, string b) internal pure returns (string) {\n       // return string(abi.encodePacked(a, b));\n    //}\n",
  "sourcePath": "/home/luisca/gr10/BondiMat/contracts/BondiMat.sol",
  "compiler": {
    "name": "solc",
    "version": "0.6.6+commit.6c089d02.Emscripten.clang"
  },
  "schemaVersion": "3.4.1",
  "updatedAt": "2021-07-07T04:25:13.699Z",
  "networkType": "ethereum",
  "devdoc": {
    "methods": {}
  },
  "userdoc": {
    "methods": {}
  }
}