{
  "contractName": "BondiMat",
  "abi": [
    {
      "inputs": [],
      "stateMutability": "nonpayable",
      "type": "constructor"
    },
    {
      "anonymous": false,
      "inputs": [
        {
          "indexed": false,
          "internalType": "address",
          "name": "account",
          "type": "address"
        },
        {
          "indexed": false,
          "internalType": "uint256",
          "name": "numberOfTrips",
          "type": "uint256"
        }
      ],
      "name": "TripsPurchased",
      "type": "event"
    },
    {
      "inputs": [],
      "name": "owner",
      "outputs": [
        {
          "internalType": "address payable",
          "name": "",
          "type": "address"
        }
      ],
      "stateMutability": "view",
      "type": "function",
      "constant": true
    },
    {
      "inputs": [
        {
          "internalType": "address",
          "name": "",
          "type": "address"
        }
      ],
      "name": "traveler",
      "outputs": [
        {
          "internalType": "uint256",
          "name": "buyDate",
          "type": "uint256"
        },
        {
          "internalType": "uint256",
          "name": "tripsLeft",
          "type": "uint256"
        }
      ],
      "stateMutability": "view",
      "type": "function",
      "constant": true
    },
    {
      "inputs": [],
      "name": "tripPrice",
      "outputs": [
        {
          "internalType": "uint256",
          "name": "",
          "type": "uint256"
        }
      ],
      "stateMutability": "view",
      "type": "function",
      "constant": true
    },
    {
      "inputs": [
        {
          "internalType": "uint256",
          "name": "_numberOfTrips",
          "type": "uint256"
        }
      ],
      "name": "buyTicket",
      "outputs": [],
      "stateMutability": "payable",
      "type": "function",
      "payable": true
    },
    {
      "inputs": [
        {
          "internalType": "uint256",
          "name": "_numberOfTrips",
          "type": "uint256"
        }
      ],
      "name": "getTotalCost",
      "outputs": [
        {
          "internalType": "uint256",
          "name": "",
          "type": "uint256"
        }
      ],
      "stateMutability": "view",
      "type": "function",
      "constant": true
    },
    {
      "inputs": [],
      "name": "userTickets",
      "outputs": [
        {
          "internalType": "uint256",
          "name": "",
          "type": "uint256"
        }
      ],
      "stateMutability": "view",
      "type": "function",
      "constant": true
    },
    {
      "inputs": [],
      "name": "usedTicket",
      "outputs": [],
      "stateMutability": "nonpayable",
      "type": "function"
    },
    {
      "inputs": [
        {
          "internalType": "uint256",
          "name": "_tripPrice",
          "type": "uint256"
        }
      ],
      "name": "updateCost",
      "outputs": [],
      "stateMutability": "nonpayable",
      "type": "function"
    },
    {
      "inputs": [],
      "name": "gettripPrice",
      "outputs": [
        {
          "internalType": "uint256",
          "name": "",
          "type": "uint256"
        }
      ],
      "stateMutability": "view",
      "type": "function",
      "constant": true
    },
    {
      "inputs": [],
      "name": "balanceOfContract",
      "outputs": [
        {
          "internalType": "uint256",
          "name": "",
          "type": "uint256"
        }
      ],
      "stateMutability": "view",
      "type": "function",
      "constant": true
    }
  ],
  "bytecode": "0x60a060405234801561001057600080fd5b5033600160006101000a81548173ffffffffffffffffffffffffffffffffffffffff021916908373ffffffffffffffffffffffffffffffffffffffff1602179055504260808181525050670de0b6b3a764000060028190555060805161091761007e600039506109176000f3fe6080604052600436106100915760003560e01c8063920bda7b11610059578063920bda7b14610211578063b8b04e9514610228578063d8edfde714610253578063e6c7c4561461027e578063f87554bc146102a957610091565b8063112021541461009657806323c5a0881461010257806367dd74ca1461013d578063765f20791461016b5780638da5cb5b146101ba575b600080fd5b3480156100a257600080fd5b506100e5600480360360208110156100b957600080fd5b81019080803573ffffffffffffffffffffffffffffffffffffffff1690602001909291905050506102d4565b604051808381526020018281526020019250505060405180910390f35b34801561010e57600080fd5b5061013b6004803603602081101561012557600080fd5b81019080803590602001909291905050506102f8565b005b6101696004803603602081101561015357600080fd5b81019080803590602001909291905050506103a8565b005b34801561017757600080fd5b506101a46004803603602081101561018e57600080fd5b81019080803590602001909291905050506105fa565b6040518082815260200191505060405180910390f35b3480156101c657600080fd5b506101cf61060d565b604051808273ffffffffffffffffffffffffffffffffffffffff1673ffffffffffffffffffffffffffffffffffffffff16815260200191505060405180910390f35b34801561021d57600080fd5b50610226610633565b005b34801561023457600080fd5b5061023d61073e565b6040518082815260200191505060405180910390f35b34801561025f57600080fd5b50610268610744565b6040518082815260200191505060405180910390f35b34801561028a57600080fd5b5061029361078e565b6040518082815260200191505060405180910390f35b3480156102b557600080fd5b506102be610853565b6040518082815260200191505060405180910390f35b60036020528060005260406000206000915090508060000154908060010154905082565b600160009054906101000a900473ffffffffffffffffffffffffffffffffffffffff1673ffffffffffffffffffffffffffffffffffffffff163373ffffffffffffffffffffffffffffffffffffffff161461039e576040517f08c379a000000000000000000000000000000000000000000000000000000000815260040180806020018281038252603e81526020018061085e603e913960400191505060405180910390fd5b8060028190555050565b60003411610401576040517f08c379a000000000000000000000000000000000000000000000000000000000815260040180806020018281038252602581526020018061089c6025913960400191505060405180910390fd5b60006002548202905080341015610463576040517f08c379a00000000000000000000000000000000000000000000000000000000081526004018080602001828103825260218152602001806108c16021913960400191505060405180910390fd5b600082116104d9576040517f08c379a000000000000000000000000000000000000000000000000000000000815260040180806020018281038252601e8152602001807f4e756d626572206f662074726970732063616e6e6f74206265207a65726f000081525060200191505060405180910390fd5b81600360003373ffffffffffffffffffffffffffffffffffffffff1673ffffffffffffffffffffffffffffffffffffffff16815260200190815260200160002060010154019150604051806040016040528042815260200183815250600360003373ffffffffffffffffffffffffffffffffffffffff1673ffffffffffffffffffffffffffffffffffffffff16815260200190815260200160002060008201518160000155602082015181600101559050507f58122d20634e00f4322c478ebc9cd0e4f977471b37915f7fb67c51d2201e78453383604051808373ffffffffffffffffffffffffffffffffffffffff1673ffffffffffffffffffffffffffffffffffffffff1681526020018281526020019250505060405180910390a15050565b6000806002548302905080915050919050565b600160009054906101000a900473ffffffffffffffffffffffffffffffffffffffff1681565b6000600360003373ffffffffffffffffffffffffffffffffffffffff1673ffffffffffffffffffffffffffffffffffffffff16815260200190815260200160002060010154116106eb576040517f08c379a000000000000000000000000000000000000000000000000000000000815260040180806020018281038252601a8152602001807f596f7520616c726561647920686176652030207469636b65747300000000000081525060200191505060405180910390fd5b6001600360003373ffffffffffffffffffffffffffffffffffffffff1673ffffffffffffffffffffffffffffffffffffffff16815260200190815260200160002060010160008282540392505081905550565b60025481565b6000600360003373ffffffffffffffffffffffffffffffffffffffff1673ffffffffffffffffffffffffffffffffffffffff16815260200190815260200160002060010154905090565b6000600160009054906101000a900473ffffffffffffffffffffffffffffffffffffffff1673ffffffffffffffffffffffffffffffffffffffff163373ffffffffffffffffffffffffffffffffffffffff1614610836576040517f08c379a000000000000000000000000000000000000000000000000000000000815260040180806020018281038252603e81526020018061085e603e913960400191505060405180910390fd5b3073ffffffffffffffffffffffffffffffffffffffff1631905090565b600060025490509056fe4920616d20616672616964206f6e6c7920436f6e7472616374204f776e65722063616e20706572666f726d20746869732074797065206f66207461736b73596f752061726520747279696e6720746f207061792077697468205a65726f204d415449434e6f7420656e6f756768204d4154494320666f722074686973207061796d656e74a264697066735822122023200d9c2f997340b5a7f51e97a5b408c17c6ffead02fa7eff464719530ecbc164736f6c63430006060033",
  "immutableReferences": {},
  "source": "// SPDX-License-Identifier: UNLICENSED\n//pragma solidity ^0.8.4;\npragma solidity ^0.6.6;\n\n// https://docs.openzeppelin.com/contracts/2.x/\n// import working only if you add the contract with nmp: 'npm install @openzeppelin/contracts'\n// import \"@openzeppelin/contracts/token/ERC20/IERC20.sol\";\n// traveler should only see his own trips left\n    \ncontract BondiMat{\n    address codeQR;\n    address payable public owner;\n    uint256 public tripPrice;\n    uint internal immutable deployDate; // Immutable variables are evaluated/assigned once at construction time and their value is copied to all the places in the code where they are accessed\n    \n    // Model a Traveler - Read/Write Travelers from DappUniversity at: https://www.dappuniversity.com/articles/solidity\n    struct Traveler{\n        // *** buyDate seems no longer important is it??\n        uint buyDate; // to be used with traveler wallet address to generate QR code\n        uint tripsLeft; // measuring the amount of days left\n    }\n\n    mapping(address => Traveler) public traveler;\n\n    event TripsPurchased(\n        address account,\n        uint256 numberOfTrips\n    );\n\n    constructor() public{\n        owner = msg.sender;\n        deployDate = block.timestamp;\n        tripPrice = 1 ether; // Initially 1 ETHER - ether is equivalent to MATIC in this contract code - 1 MATIC is approx 1USD at July 2021\n        // start = block.timestamp + duration;\n    }\n    \n    // send Ether to smart contract from Julian video: https://www.youtube.com/watch?v=4k_ak3SFczc\n    // how to use States with enum form Escrow contract from Blockgeeks: https://www.youtube.com/watch?v=6Mry6oAQVXU \n    // add events from Hotelbooking from Greg dappuniversity: https://www.youtube.com/watch?v=oB1SahPR0MQ\n    // copying from \"book\" function from Flight Contract https://github.com/smallbatch-apps/fairline-contract/blob/master/contracts/Flight.sol\n\n    // Safer to do a transferFrom to avoid a hacker to modify transfer from Frontend\n    function buyTicket(uint _numberOfTrips ) external payable {\n        require(msg.value > 0, \"You are trying to pay with Zero MATIC\");\n        uint256 totalCost = _numberOfTrips * tripPrice;\n        require(msg.value >= totalCost, \"Not enough MATIC for this payment\");\n        require(_numberOfTrips > 0, \"Number of trips cannot be zero\");\n        _numberOfTrips = traveler[msg.sender].tripsLeft + _numberOfTrips;\n        traveler[msg.sender] = Traveler(block.timestamp,_numberOfTrips);\n        emit TripsPurchased(msg.sender, _numberOfTrips );\n    \n    }\n\n    function getTotalCost(uint _numberOfTrips) external view returns(uint256){\n        uint256 test = _numberOfTrips * tripPrice;\n        return test;\n    }\n    \n    function userTickets() external view returns(uint){\n        return traveler[msg.sender].tripsLeft;\n    }\n\n    // *** Temporary trips Decrease function\n    function usedTicket() external{\n        require(traveler[msg.sender].tripsLeft > 0, \"You already have 0 tickets\");\n        traveler[msg.sender].tripsLeft -= 1;\n    }\n    \n    function updateCost(uint256 _tripPrice) external onlyOwner{\n        tripPrice = _tripPrice;\n    }\n\n    // This provides 1 Trip Cost\n    function gettripPrice() external view returns(uint256) {\n        return tripPrice;\n    }\n    \n    // This provides Contract balance\n    function balanceOfContract() external view onlyOwner returns(uint){\n        return address(this).balance;\n    }\n    \n\n    // Good info about it in https://www.dappuniversity.com/articles/solidity-tutorial#3\n    modifier onlyOwner(){\n        require(msg.sender == owner, \"I am afraid only Contract Owner can perform this type of tasks\");\n        _;\n    }\n\n// ToDos\n    //*** function to show current MATIC available or it could be shown when buying ... uint balance; // to show the user what the amount of MATIC he has to purchase  \n    //*** function to update the cost of trips (onlyOwner or delegated)\n    //*** add states and events\n    \n// Flight Contract https://github.com/smallbatch-apps/fairline-contract/blob/master/contracts/Flight.sol\n //modifier hasTicket(){\n    //require(_ownerSeats[msg.sender].length > 0, \"Passenger must have active QR for this trip\");\n    //_;\n    //}\n\n  //modifier hasTicket(){\n    //require(_contractOwner = owner)\n    //_;\n    //}\n\n}\n\n//Notes:\n    // https://ethereum.stackexchange.com/questions/729/how-to-concatenate-strings-in-solidity\n    //function append(string a, string b) internal pure returns (string) {\n       // return string(abi.encodePacked(a, b));\n    //}\n",
  "sourcePath": "/home/luisca/blockchain/bondi-mat/contracts/BondiMat.sol",
  "compiler": {
    "name": "solc",
    "version": "0.6.6+commit.6c089d02.Emscripten.clang"
  },
  "schemaVersion": "3.4.3",
  "updatedAt": "2021-11-17T11:31:31.619Z",
  "networkType": "ethereum",
  "devdoc": {
    "methods": {}
  },
  "userdoc": {
    "methods": {}
  }
}