{
  "contractName": "BondiMat",
  "abi": [
    {
      "inputs": [],
      "stateMutability": "nonpayable",
      "type": "constructor"
    },
    {
      "inputs": [],
      "name": "owner",
      "outputs": [
        {
          "internalType": "address payable",
          "name": "",
          "type": "address"
        }
      ],
      "stateMutability": "view",
      "type": "function",
      "constant": true
    },
    {
      "inputs": [
        {
          "internalType": "address",
          "name": "",
          "type": "address"
        }
      ],
      "name": "traveler",
      "outputs": [
        {
          "internalType": "uint256",
          "name": "buyDate",
          "type": "uint256"
        },
        {
          "internalType": "uint256",
          "name": "tripsLeft",
          "type": "uint256"
        }
      ],
      "stateMutability": "view",
      "type": "function",
      "constant": true
    },
    {
      "inputs": [],
      "name": "tripPrice",
      "outputs": [
        {
          "internalType": "uint256",
          "name": "",
          "type": "uint256"
        }
      ],
      "stateMutability": "view",
      "type": "function",
      "constant": true
    },
    {
      "inputs": [
        {
          "internalType": "uint256",
          "name": "_numberOfTrips",
          "type": "uint256"
        }
      ],
      "name": "buyTicket",
      "outputs": [],
      "stateMutability": "nonpayable",
      "type": "function"
    },
    {
      "inputs": [
        {
          "internalType": "uint256",
          "name": "_numberOfTrips",
          "type": "uint256"
        }
      ],
      "name": "getTotalCost",
      "outputs": [
        {
          "internalType": "uint256",
          "name": "",
          "type": "uint256"
        }
      ],
      "stateMutability": "view",
      "type": "function",
      "constant": true
    },
    {
      "inputs": [],
      "name": "usedTicket",
      "outputs": [],
      "stateMutability": "nonpayable",
      "type": "function"
    },
    {
      "inputs": [
        {
          "internalType": "uint256",
          "name": "_tripPrice",
          "type": "uint256"
        }
      ],
      "name": "updateCost",
      "outputs": [],
      "stateMutability": "nonpayable",
      "type": "function"
    },
    {
      "inputs": [],
      "name": "gettripPrice",
      "outputs": [
        {
          "internalType": "uint256",
          "name": "",
          "type": "uint256"
        }
      ],
      "stateMutability": "view",
      "type": "function",
      "constant": true
    },
    {
      "inputs": [],
      "name": "balanceOfContract",
      "outputs": [
        {
          "internalType": "uint256",
          "name": "",
          "type": "uint256"
        }
      ],
      "stateMutability": "view",
      "type": "function",
      "constant": true
    }
  ],
  "bytecode": "0x60a060405234801561001057600080fd5b5033600160006101000a81548173ffffffffffffffffffffffffffffffffffffffff021916908373ffffffffffffffffffffffffffffffffffffffff160217905550426080818152505060646002819055506080516105b1610077600039506105b16000f3fe608060405234801561001057600080fd5b50600436106100935760003560e01c80638da5cb5b116100665780638da5cb5b14610195578063920bda7b146101df578063b8b04e95146101e9578063e6c7c45614610207578063f87554bc1461022557610093565b8063112021541461009857806323c5a088146100f757806367dd74ca14610125578063765f207914610153575b600080fd5b6100da600480360360208110156100ae57600080fd5b81019080803573ffffffffffffffffffffffffffffffffffffffff169060200190929190505050610243565b604051808381526020018281526020019250505060405180910390f35b6101236004803603602081101561010d57600080fd5b8101908080359060200190929190505050610267565b005b6101516004803603602081101561013b57600080fd5b8101908080359060200190929190505050610317565b005b61017f6004803603602081101561016957600080fd5b8101908080359060200190929190505050610324565b6040518082815260200191505060405180910390f35b61019d610337565b604051808273ffffffffffffffffffffffffffffffffffffffff1673ffffffffffffffffffffffffffffffffffffffff16815260200191505060405180910390f35b6101e761035d565b005b6101f1610468565b6040518082815260200191505060405180910390f35b61020f61046e565b6040518082815260200191505060405180910390f35b61022d610533565b6040518082815260200191505060405180910390f35b60036020528060005260406000206000915090508060000154908060010154905082565b600160009054906101000a900473ffffffffffffffffffffffffffffffffffffffff1673ffffffffffffffffffffffffffffffffffffffff163373ffffffffffffffffffffffffffffffffffffffff161461030d576040517f08c379a000000000000000000000000000000000000000000000000000000000815260040180806020018281038252603e81526020018061053e603e913960400191505060405180910390fd5b8060028190555050565b6000600254820290505050565b6000806002548302905080915050919050565b600160009054906101000a900473ffffffffffffffffffffffffffffffffffffffff1681565b6000600360003373ffffffffffffffffffffffffffffffffffffffff1673ffffffffffffffffffffffffffffffffffffffff1681526020019081526020016000206001015411610415576040517f08c379a000000000000000000000000000000000000000000000000000000000815260040180806020018281038252601a8152602001807f596f7520616c726561647920686176652030207469636b65747300000000000081525060200191505060405180910390fd5b6001600360003373ffffffffffffffffffffffffffffffffffffffff1673ffffffffffffffffffffffffffffffffffffffff16815260200190815260200160002060010160008282540392505081905550565b60025481565b6000600160009054906101000a900473ffffffffffffffffffffffffffffffffffffffff1673ffffffffffffffffffffffffffffffffffffffff163373ffffffffffffffffffffffffffffffffffffffff1614610516576040517f08c379a000000000000000000000000000000000000000000000000000000000815260040180806020018281038252603e81526020018061053e603e913960400191505060405180910390fd5b3073ffffffffffffffffffffffffffffffffffffffff1631905090565b600060025490509056fe4920616d20616672616964206f6e6c7920436f6e7472616374204f776e65722063616e20706572666f726d20746869732074797065206f66207461736b73a264697066735822122020fab01cacc40310709bf46fe493d6b0376f556989a6055cb86710a755264ac864736f6c63430006060033",
  "immutableReferences": {},
  "source": "// SPDX-License-Identifier: UNLICENSED\n//pragma solidity ^0.8.4;\npragma solidity ^0.6.6;\n\n// https://docs.openzeppelin.com/contracts/2.x/\n// import working only if you add the contract with nmp: 'npm install @openzeppelin/contracts'\n// import \"@openzeppelin/contracts/token/ERC20/IERC20.sol\";\n// traveler should only see his own trips left\n    \ncontract BondiMat{\n    address codeQR;\n    address payable public owner;\n    uint256 public tripPrice;\n    uint internal immutable deployDate; // Immutable variables are evaluated/assigned once at construction time and their value is copied to all the places in the code where they are accessed\n    \n    // Model a Traveler - Read/Write Travelers from DappUniversity at: https://www.dappuniversity.com/articles/solidity\n    struct Traveler{\n        // *** buyDate seems no longer important is it??\n        uint buyDate; // to be used with traveler wallet address to generate QR code\n        uint tripsLeft; // measuring the amount of days left\n    }\n\n    mapping(address => Traveler) public traveler;\n\n    constructor() public{\n        owner = msg.sender;\n        deployDate = block.timestamp;\n        tripPrice = 100 wei; // Initially 0.001 ETHER - ether is equivalent to MATIC in this contract code - 1 MATIC is approx 1USD at July 2021\n        // start = block.timestamp + duration;\n    }\n    \n    // send Ether to smart contract from Julian video: https://www.youtube.com/watch?v=4k_ak3SFczc\n    // how to use States with enum form Escrow contract from Blockgeeks: https://www.youtube.com/watch?v=6Mry6oAQVXU \n    // add events from Hotelbooking from Greg dappuniversity: https://www.youtube.com/watch?v=oB1SahPR0MQ\n    // copying from \"book\" function from Flight Contract https://github.com/smallbatch-apps/fairline-contract/blob/master/contracts/Flight.sol\n    /*function buyTicket(uint _numberOfTrips) external payable{\n        require(msg.value > 0, \"You are trying to pay with Zero MATIC\");\n        require(msg.value >= _numberOfTrips * tripPrice, \"Not enough MATIC for this payment\");\n        require(_numberOfTrips > 0, \"Number of trips cannot be zero\");\n        _numberOfTrips = traveler[msg.sender].tripsLeft + _numberOfTrips;\n        traveler[msg.sender] = Traveler(block.timestamp,_numberOfTrips);\n    }\n    */\n    // Safer to do a transferFrom to avoid a hacker to modify transfer from Frontend\n    function buyTicket(uint _numberOfTrips) external{\n        uint256 totalCost;\n        totalCost = _numberOfTrips * tripPrice;\n    }\n\n    function getTotalCost(uint _numberOfTrips) external view returns(uint256){\n        uint256 test = _numberOfTrips * tripPrice;\n        return test;\n    }\n    \n    // *** Temporary trips Decrease function\n    function usedTicket() external{\n        require(traveler[msg.sender].tripsLeft > 0, \"You already have 0 tickets\");\n        traveler[msg.sender].tripsLeft -= 1;\n    }\n    \n    function updateCost(uint256 _tripPrice) external onlyOwner{\n        tripPrice = _tripPrice;\n    }\n\n    // This provides 1 Trip Cost\n    function gettripPrice() external view returns(uint256) {\n        return tripPrice;\n    }\n    \n    // This provides Contract balance\n    function balanceOfContract() external view onlyOwner returns(uint){\n        return address(this).balance;\n    }\n    \n\n    // Good info about it in https://www.dappuniversity.com/articles/solidity-tutorial#3\n    modifier onlyOwner(){\n        require(msg.sender == owner, \"I am afraid only Contract Owner can perform this type of tasks\");\n        _;\n    }\n\n\n// ToDos\n    //*** function to show current MATIC available or it could be shown when buying ... uint balance; // to show the user what the amount of MATIC he has to purchase  \n    //*** function to update the cost of trips (onlyOwner or delegated)\n    //*** add states and events\n    \n// Flight Contract https://github.com/smallbatch-apps/fairline-contract/blob/master/contracts/Flight.sol\n //modifier hasTicket(){\n    //require(_ownerSeats[msg.sender].length > 0, \"Passenger must have active QR for this trip\");\n    //_;\n    //}\n\n  //modifier hasTicket(){\n    //require(_contractOwner = owner)\n    //_;\n    //}\n\n}\n\n//Notes:\n    // https://ethereum.stackexchange.com/questions/729/how-to-concatenate-strings-in-solidity\n    //function append(string a, string b) internal pure returns (string) {\n       // return string(abi.encodePacked(a, b));\n    //}\n",
  "sourcePath": "/home/luisca/blockchain/bondi-mat/contracts/BondiMat.sol",
  "compiler": {
    "name": "solc",
    "version": "0.6.6+commit.6c089d02.Emscripten.clang"
  },
  "schemaVersion": "3.4.3",
  "updatedAt": "2021-10-27T12:00:26.237Z",
  "networkType": "ethereum",
  "devdoc": {
    "methods": {}
  },
  "userdoc": {
    "methods": {}
  }
}