{
  "contractName": "BondiMat",
  "abi": [
    {
      "inputs": [],
      "stateMutability": "nonpayable",
      "type": "constructor"
    },
    {
      "inputs": [],
      "name": "totalCost",
      "outputs": [
        {
          "internalType": "uint256",
          "name": "",
          "type": "uint256"
        }
      ],
      "stateMutability": "view",
      "type": "function",
      "constant": true
    },
    {
      "inputs": [
        {
          "internalType": "address",
          "name": "",
          "type": "address"
        }
      ],
      "name": "traveler",
      "outputs": [
        {
          "internalType": "uint256",
          "name": "buyDate",
          "type": "uint256"
        },
        {
          "internalType": "uint256",
          "name": "tripsLeft",
          "type": "uint256"
        }
      ],
      "stateMutability": "view",
      "type": "function",
      "constant": true
    },
    {
      "inputs": [
        {
          "internalType": "uint256",
          "name": "_numberOfTrips",
          "type": "uint256"
        }
      ],
      "name": "buyTicket",
      "outputs": [],
      "stateMutability": "payable",
      "type": "function",
      "payable": true
    },
    {
      "inputs": [],
      "name": "usedTicket",
      "outputs": [],
      "stateMutability": "nonpayable",
      "type": "function"
    },
    {
      "inputs": [],
      "name": "balanceOfCont",
      "outputs": [
        {
          "internalType": "uint256",
          "name": "",
          "type": "uint256"
        }
      ],
      "stateMutability": "view",
      "type": "function",
      "constant": true
    }
  ],
  "bytecode": "0x60a060405234801561001057600080fd5b5033600260006101000a81548173ffffffffffffffffffffffffffffffffffffffff021916908373ffffffffffffffffffffffffffffffffffffffff1602179055504260808181525050670de0b6b3a764000060038190555060805161044861007e600039506104486000f3fe60806040526004361061004a5760003560e01c8063112021541461004f578063198c6022146100bb5780633c5e6c97146100e657806367dd74ca14610111578063920bda7b1461013f575b600080fd5b34801561005b57600080fd5b5061009e6004803603602081101561007257600080fd5b81019080803573ffffffffffffffffffffffffffffffffffffffff169060200190929190505050610156565b604051808381526020018281526020019250505060405180910390f35b3480156100c757600080fd5b506100d061017a565b6040518082815260200191505060405180910390f35b3480156100f257600080fd5b506100fb61023f565b6040518082815260200191505060405180910390f35b61013d6004803603602081101561012757600080fd5b8101908080359060200190929190505050610245565b005b34801561014b57600080fd5b50610154610360565b005b60046020528060005260406000206000915090508060000154908060010154905082565b6000600260009054906101000a900473ffffffffffffffffffffffffffffffffffffffff1673ffffffffffffffffffffffffffffffffffffffff163373ffffffffffffffffffffffffffffffffffffffff1614610222576040517f08c379a000000000000000000000000000000000000000000000000000000000815260040180806020018281038252603e8152602001806103b4603e913960400191505060405180910390fd5b3073ffffffffffffffffffffffffffffffffffffffff1631905090565b60005481565b60035481026000819055506000543410156102ab576040517f08c379a00000000000000000000000000000000000000000000000000000000081526004018080602001828103825260218152602001806103f26021913960400191505060405180910390fd5b80600460003373ffffffffffffffffffffffffffffffffffffffff1673ffffffffffffffffffffffffffffffffffffffff16815260200190815260200160002060010154019050604051806040016040528042815260200182815250600460003373ffffffffffffffffffffffffffffffffffffffff1673ffffffffffffffffffffffffffffffffffffffff168152602001908152602001600020600082015181600001556020820151816001015590505050565b6001600460003373ffffffffffffffffffffffffffffffffffffffff1673ffffffffffffffffffffffffffffffffffffffff1681526020019081526020016000206001016000828254039250508190555056fe4920616d20616672616964206f6e6c7920436f6e7472616374204f776e65722063616e20706572666f726d20746869732074797065206f66207461736b734e6f7420656e6f756768204d4154494320666f722074686973207061796d656e74a2646970667358221220c59576242d87542554892bb67c990da15d5da471bed9237f013b6c16376bbd0364736f6c63430006060033",
  "immutableReferences": {},
  "source": "// SPDX-License-Identifier: UNLICENSED\n//pragma solidity ^0.8.4;\npragma solidity ^0.6.6;\n\n// https://docs.openzeppelin.com/contracts/2.x/\n// import working only if you add the contract with nmp: 'npm install @openzeppelin/contracts'\n// import \"@openzeppelin/contracts/token/ERC20/IERC20.sol\";\n    \ncontract BondiMat{\n    uint public totalCost;\n    address codeQR;\n    address internal owner;\n    uint256 tripCost;\n    uint internal immutable deployDate; // Immutable variables are evaluated/assigned once at construction time and their value is copied to all the places in the code where they are accessed\n    \n    // Model a Traveler - Read/Write Travelers from DappUniversity at: https://www.dappuniversity.com/articles/solidity\n    struct Traveler{\n        // *** buyDate seems no longer important is it??\n        uint buyDate; // to be used with traveler wallet address to generate QR code\n        uint tripsLeft; // measuring the amount of days left\n    }\n\n    mapping(address => Traveler) public traveler;\n\n    constructor() public{\n        owner = msg.sender;\n        deployDate = block.timestamp;\n        tripCost = 1 ether; // ether is simil to MATIC - 1 MATIC is approx 1USD at July 2021\n        // start = block.timestamp + duration;\n        // revisar acá como ponerle el msg.sender y que lo tome como una address payable\n        // contractOwner = msg.sender;\n    }\n\n    //*** function to show current MATIC available or it could be shown when buying ... uint balance; // to show the user what the amount of MATIC he has to purchase  \n    //*** function to update the cost of trips (onlyOwner or delegated)\n     \n    // send Ether to smart contract from Julian video: https://www.youtube.com/watch?v=4k_ak3SFczc\n    function buyTicket(uint _numberOfTrips) external payable{\n        totalCost = _numberOfTrips * tripCost;\n        // *** totalCost could be presented to customer or a preview before accepting (probably already done by Metamask)\n        require(msg.value >= totalCost, \"Not enough MATIC for this payment\");\n        _numberOfTrips = traveler[msg.sender].tripsLeft + _numberOfTrips;\n        traveler[msg.sender] = Traveler(block.timestamp,_numberOfTrips);\n    }\n    \n    // *** Temporary trips Decrease function\n    function usedTicket() external{\n        traveler[msg.sender].tripsLeft -= 1;\n    }\n    \n    /** This provides traveler's QR code (wallet address)\n    function showQR() external view returns(address) {\n        return msg.sender;\n    }\n    */\n    \n    // This provides Contract balance\n    function balanceOfCont() external view onlyOwner returns(uint){\n        return address(this).balance;\n    }\n    \n\n    // Good info about it in https://www.dappuniversity.com/articles/solidity-tutorial#3\n    modifier onlyOwner(){\n        require(msg.sender == owner, \"I am afraid only Contract Owner can perform this type of tasks\");\n        _;\n    }\n    \n// Flight Contract https://github.com/smallbatch-apps/fairline-contract/blob/master/contracts/Flight.sol\n //modifier hasTicket(){\n    //require(_ownerSeats[msg.sender].length > 0, \"Passenger must have active QR for this trip\");\n    //_;\n    //}\n\n  //modifier hasTicket(){\n    //require(_contractOwner = owner)\n    //_;\n    //}\n\n}\n\n//Notes:\n    // https://ethereum.stackexchange.com/questions/729/how-to-concatenate-strings-in-solidity\n    //function append(string a, string b) internal pure returns (string) {\n       // return string(abi.encodePacked(a, b));\n    //}\n",
  "sourcePath": "/home/luisca/gr10/BondiMat/contracts/BondiMat.sol",
  "compiler": {
    "name": "solc",
    "version": "0.6.6+commit.6c089d02.Emscripten.clang"
  },
  "schemaVersion": "3.4.1",
  "updatedAt": "2021-07-03T13:09:11.411Z",
  "networkType": "ethereum",
  "devdoc": {
    "methods": {}
  },
  "userdoc": {
    "methods": {
      "balanceOfCont()": {
        "notice": "This provides traveler's QR code (wallet address) function showQR() external view returns(address) { return msg.sender; }"
      }
    }
  }
}