{
  "contractName": "PriceConsumerV3",
  "abi": [
    {
      "inputs": [],
      "stateMutability": "nonpayable",
      "type": "constructor"
    },
    {
      "inputs": [],
      "name": "getLatestETH",
      "outputs": [
        {
          "internalType": "int256",
          "name": "",
          "type": "int256"
        }
      ],
      "stateMutability": "view",
      "type": "function",
      "constant": true
    },
    {
      "inputs": [],
      "name": "getLatestMATIC",
      "outputs": [
        {
          "internalType": "int256",
          "name": "",
          "type": "int256"
        }
      ],
      "stateMutability": "view",
      "type": "function",
      "constant": true
    },
    {
      "inputs": [],
      "name": "getLatestDAI",
      "outputs": [
        {
          "internalType": "int256",
          "name": "",
          "type": "int256"
        }
      ],
      "stateMutability": "view",
      "type": "function",
      "constant": true
    }
  ],
  "bytecode": "0x608060405234801561001057600080fd5b50730715a7794a1dc8e42615f059dd6e406a6594651a6000806101000a81548173ffffffffffffffffffffffffffffffffffffffff021916908373ffffffffffffffffffffffffffffffffffffffff16021790555073d0d5e3db44de05e9f294bb0a3beeaf030de24ada600160006101000a81548173ffffffffffffffffffffffffffffffffffffffff021916908373ffffffffffffffffffffffffffffffffffffffff160217905550730fcaa9c899ec5a91ebc3d5dd869de833b06fb046600260006101000a81548173ffffffffffffffffffffffffffffffffffffffff021916908373ffffffffffffffffffffffffffffffffffffffff1602179055506103668061011e6000396000f3fe608060405234801561001057600080fd5b50600436106100415760003560e01c806345c21525146100465780635ef10a7014610064578063b748533514610082575b600080fd5b61004e6100a0565b6040518082815260200191505060405180910390f35b61006c61017a565b6040518082815260200191505060405180910390f35b61008a610255565b6040518082815260200191505060405180910390f35b6000806000809054906101000a900473ffffffffffffffffffffffffffffffffffffffff1673ffffffffffffffffffffffffffffffffffffffff1663feaf968c6040518163ffffffff1660e01b815260040160a06040518083038186803b15801561010a57600080fd5b505afa15801561011e573d6000803e3d6000fd5b505050506040513d60a081101561013457600080fd5b8101908080519060200190929190805190602001909291908051906020019092919080519060200190929190805190602001909291905050505050509150508091505090565b600080600260009054906101000a900473ffffffffffffffffffffffffffffffffffffffff1673ffffffffffffffffffffffffffffffffffffffff1663feaf968c6040518163ffffffff1660e01b815260040160a06040518083038186803b1580156101e557600080fd5b505afa1580156101f9573d6000803e3d6000fd5b505050506040513d60a081101561020f57600080fd5b8101908080519060200190929190805190602001909291908051906020019092919080519060200190929190805190602001909291905050505050509150508091505090565b600080600160009054906101000a900473ffffffffffffffffffffffffffffffffffffffff1673ffffffffffffffffffffffffffffffffffffffff1663feaf968c6040518163ffffffff1660e01b815260040160a06040518083038186803b1580156102c057600080fd5b505afa1580156102d4573d6000803e3d6000fd5b505050506040513d60a08110156102ea57600080fd5b810190808051906020019092919080519060200190929190805190602001909291908051906020019092919080519060200190929190505050505050915050809150509056fea2646970667358221220960e2676e67e3165f37386275d1b945f7af26b05a83d108fa9516cec9b15f55064736f6c63430006060033",
  "source": "// SPDX-License-Identifier: MIT\npragma solidity ^0.6.6;\n\nimport \"@chainlink/contracts/src/v0.6/interfaces/AggregatorV3Interface.sol\";\n\ncontract PriceConsumerV3 {\n\n    AggregatorV3Interface internal priceETH;\n    AggregatorV3Interface internal priceMATIC;\n    AggregatorV3Interface internal priceDAI;\n\n    /**\n     * Network: Kovan\n     * Aggregator: ETH/USD\n     * Address: 0x9326BFA02ADD2366b30bacB125260Af641031331\n\n     * Network: Matic Mumbai Testnet\n     * Oracle: 0x58bbdbfb6fca3129b91f0dbe372098123b38b5e9\n     * Job ID: da20aae0e4c843f6949e5cb3f7cfe8c4\n     * LINK address: 0x326C977E6efc84E512bB9C30f76E30c160eD06FB\n     * Fee: 0.01 LINK\n     * CHAINLINK Price Feeds:\n     * DAI / USD    8   0x0FCAa9c899EC5A91eBc3D5Dd869De833b06fB046\n     * ETH / USD   8   0x0715A7794a1dc8e42615F059dD6e406A6594651A\n     * MATIC / USD 8   0xd0D5e3DB44DE05E9F294BB0a3bEEaF030DE24Ada\n     * \n     */\n\n\n//    constructor(address _priceFeed) public {\n    constructor() public {\n//        priceFeed = AggregatorV3Interface(_priceFeed);\n        priceETH = AggregatorV3Interface(0x0715A7794a1dc8e42615F059dD6e406A6594651A);\n        priceMATIC = AggregatorV3Interface(0xd0D5e3DB44DE05E9F294BB0a3bEEaF030DE24Ada);\n        priceDAI = AggregatorV3Interface(0x0FCAa9c899EC5A91eBc3D5Dd869De833b06fB046);\n    }\n\n    /**\n     * Returns the latest price\n     */\n    function getLatestETH() public view returns (int) {\n        (\n            /* uint80 roundID */,\n            int priceETHLatest,\n            /* uint startedAt */,\n            /* uint timeStamp */,\n            /* uint80 answeredInRound */\n        ) = priceETH.latestRoundData();\n        return priceETHLatest;\n    }\n    function getLatestMATIC() public view returns (int) {\n        (\n            /* uint80 roundID */,\n            int priceMATICLatest,\n            /* uint startedAt */,\n            /* uint timeStamp */,\n            /* uint80 answeredInRound */\n        ) = priceMATIC.latestRoundData();\n        return priceMATICLatest;\n    }\n    function getLatestDAI() public view returns (int) {\n        (\n            /* uint80 roundID */,\n            int priceDAILatest,\n            /* uint startedAt */,\n            /* uint timeStamp */,\n            /* uint80 answeredInRound */\n        ) = priceDAI.latestRoundData();\n        return priceDAILatest;\n    }\n}\n",
  "sourcePath": "/home/luisca/chainlink_defi/src/contracts/PriceConsumerV3.sol",
  "compiler": {
    "name": "solc",
    "version": "0.6.6+commit.6c089d02.Emscripten.clang"
  },
  "schemaVersion": "3.0.23",
  "updatedAt": "2021-05-31T06:16:00.814Z",
  "networkType": "ethereum",
  "devdoc": {
    "methods": {}
  },
  "userdoc": {
    "methods": {
      "constructor": "Network: Kovan Aggregator: ETH/USD Address: 0x9326BFA02ADD2366b30bacB125260Af641031331 Network: Matic Mumbai Testnet Oracle: 0x58bbdbfb6fca3129b91f0dbe372098123b38b5e9 Job ID: da20aae0e4c843f6949e5cb3f7cfe8c4 LINK address: 0x326C977E6efc84E512bB9C30f76E30c160eD06FB Fee: 0.01 LINK CHAINLINK Price Feeds: DAI / USD    8   0x0FCAa9c899EC5A91eBc3D5Dd869De833b06fB046 ETH / USD   8   0x0715A7794a1dc8e42615F059dD6e406A6594651A MATIC / USD 8   0xd0D5e3DB44DE05E9F294BB0a3bEEaF030DE24Ada      ",
      "getLatestETH()": {
        "notice": "Returns the latest price"
      }
    }
  }
}